:03056D00257300F3
:1004B90012055B12052A7FD07E0712050E12035F13
:1004C900750B00750C00750D227BFF7A05796D128D
:0B04D90000657FD07E0712050E80E258
:10053F00C2907F147E0012050ED2907F02020566D4
:1004E400E4F511F5102090FD3090FD7F06120566AD
:1004F400E51125E0F51130900205112090FD05105D
:09050400E510C3940840DEAF11BC
:01050D0022CB
:10035F0012053F3090030203ED3090FD7F0D120523
:10036F00661204E48F081204E48F091204E48F0B61
:10037F001204E48F0A1204E4E509FDE5082DFDE4FB
:10038F0033FCE50B7A002DFDEA3CFCE50A2DFDEA76
:10039F003CFCEFB50510EAB5040C85080C85090D7A
:1003AF00850B0E850A0FE50C75F00A842430F522B3
:1003BF00E50C75F00A84E5F02430F52375242075DB
:1003CF002520E50E75F00A842430F526E50E75F02C
:0E03DF000A84E5F02430F527752820752920C2
:0103ED0022ED
:0B055B005389F0438901C28DC28C223D
:07056600AE071FEE70FA2240
:10050E00EF1FAC0670011E4C6011758CFC758A4095
:0C051E00D28C308DFDC28CC28D80E52295
:10052A0075984075878053890F438920758DF375B7
:05053A008BF3D28E22BC
:10047C00EF640A701C309811E599B4130CC29830D3
:10048C0098FDE599B411F6C29875990D3099FDC295
:10049C0099309811E599B4130CC2983098FDE599F0
:0D04AC00B411F6C2988F993099FDC29922C3
:0300000002054FA7
:0C054F00787FE4F6D8FD75812A0204B91B
:10000300E517240BF8E60517227808300702780B6A
:10001300E475F0011204460203EE2000EB7F2ED2BA
:10002300008018EF540F2490D43440D4FF30040BD5
:10003300EF24BFB41A0050032461FFE518600215D2
:1000430018051BE51B7002051A30070D7808E475C7
:10005300F001120446EF02043402047C7403D20755
:100063008003E4C207F5178B088A09890AE4F518A7
:10007300F51AF51BE51860077F2012003E80F57521
:1000830019FFC201C200C202C203C205C206C208EE
:1000930012000CFF700D3007057F0012004FAF1BDD
:1000A300AE1A22B4255FC2D5C20412000CFF24D0BD
:1000B300B40A00501A75F00A781830D50508B6FF4F
:1000C3000106C6A426F620D5047002D20380D924E3
:1000D300CFB41A00EF5004C2E5D20402024FD2019A
:1000E30080C6D20080C0D20280BCD2D580BAD205ED
:1000F30080B47F2012003E2002077401B51800402F
:10010300F1120003FF12003E020077D208D20680EC
:1001130095120003FB120003FA120003F94A4B7015
:100123000679207A037BFF20022EE518602A7E00E1
:100133008E8275830012040760060EEE651970F057
:10014300C2D5EBC0E0EAC0E0E9C0E0EE120296D00F
:10015300E0F9D0E0FAD0E0FB1203EEFF60AAEBC0B7
:10016300E0EAC0E0E9C0E012003ED0E02401F9D0AB
:10017300E03400FAD0E0FBE5190460DCD519D9803E
:10018300877BFF7A027992D202809C791080027970
:1001930008C206C2088008D2D5790A8004790AC247
:1001A300D5E519047002F519E4FAFDFEFF12000308
:1001B300FC7B08200113120003FD7B1030000A12A0
:1001C3000003FE120003FF7B20EC3382D592D5504F
:1001D30013C3E43000069FFFE49EFEE42001039D69
:1001E300FDE49CFCE4CBF8C201EC700CCFCECDCC8B
:1001F300E824F8F870F38017C3EF33FFEE33FEED16
:1002030033FDEC33FCEB33FB994002FB0FD8E9EBF6
:10021300300105F8D0E0C448B201C0E00AEC4D4E0D
:100223004F78207B0070C2EAB5190040BCC0E012D1
:100233000298D0F0D0E0200104C4C0E0C4B201C0F1
:10024300F0120027D0F0D5F0EB020077120456012C
:100253001453018E5800E54C00E14201924F019A7C
:0F02630044019A4900FA4301A0550184460184E1
:100272004501844703405000E92D00ED2E01102B6B
:1002820000F123010E2003292A00A94800000108D9
:100292003F3F3F00790AA2D5200314300509B91067
:1002A200020404B9080104A2D52006025001042068
:1002B20002689202B518005034C0E07F2030031962
:1002C2007F30A20272067205500F1202EFC202C202
:1002D20006C205C2087F30800F300503E9C0E01274
:1002E200003E300503D0E0F9D0E0B518CC30051758
:1002F2007F30B9100C12003E7F583004077F78809F
:1003020003B9080312003E3002057F2D02003E7F32
:10031200202008F87F2B2006F322920280CF286E3D
:10032200756C6C2900D2011200033001F8C2017809
:100332001830D50108F60200A92D50434958120081
:10034200032403B405004001E490033B9312002F01
:0D035200743A12002FD20375180402018EB8
:1003EE00BB010689828A83E0225002E722BBFE020D
:0903FE00E32289828A83E4932240
:10040700BB010CE58229F582E5833AF583E02250AA
:1004170006E92582F8E622BBFE06E92582F8E222F4
:0D042700E58229F582E5833AF583E493220E
:10043400BB010689828A83F0225002F722BBFE01A7
:02044400F322A1
:10044600FAE6FB0808E6F925F0F618E6CA3AF622B7
:10045600D083D082F8E4937012740193700DA3A335
:1004660093F8740193F5828883E473740293686049
:06047600EFA3A3A380DF49
:00000001FF
